:020000040800F2
:1000000028050020D500000881120008B31100085F
:1000100000000000000000000000000000000000E0
:10002000000000000000000000000000CB120008EB
:100030000000000000000000C9120008CD120008F6
:100040000501000805010008050100080501000878
:10005000050100080501000805010008F501000878
:100060000501000805010008050100080501000858
:100070000501000805010008050100080501000848
:100080000501000800000000000000000501000854
:1000900000000000050100087113000805010008B8
:1000A0000000000005010008050100080501000826
:1000B000F91700080000000005010008050100080C
:1000C0000348854600F084F800480047AD1B00084F
:1000D000280500200C4880F308880C480168090EA8
:1000E0000B4A914205D10B480B4901600B480C4962
:1000F00001600C4880470C480047FEE7FEE7FEE73A
:10010000FEE7FEE7FEE700002805002004000000EF
:100110001F00000018100240010000000000014014
:100120000000000015130008C100000830B50B46A0
:10013000014600202022012409E00D46D5409D42C1
:1001400005D31D469540491B254695404019154647
:10015000521E002DF1DC30BD03460B439B0703D03C
:1001600009E008C9121F08C0042AFAD203E00B787C
:100170000370401C491C521EF9D27047D2B201E0F4
:100180000270401C491EFBD270470022F6E710B5F2
:1001900013460A4604461946FFF7F0FF204610BDF5
:1001A00010B5002200E0521C835C8C5CA34201D19C
:1001B000002BF8D1D8B2E1B2401A10BD03460A783C
:1001C0000270401C491C002AF9D1184670470000F3
:1001D000064C0125064E05E0E36807CC2B430C3C9A
:1001E00098471034B442F7D3FFF76EFF281E00087B
:1001F000481E000810B5102000F096F8202000F0EE
:1002000093F8FF20013000F08FF80120C00200F0C9
:100210008BF810BD70B50024014620314A78022ABF
:1002200003D004218163012416E0026813680E25BF
:10023000AB431360026813685B085B001360012224
:10024000056C1346AB40C56B6B604A7000220A70A8
:10025000416B002900D08847204670BD70B52F49FA
:10026000FF22013201262C4C0D689AB0904212D127
:1002700064222B496846FFF76FFFE869C0434006D8
:10028000FBD464226946254800F066FF23484038C5
:1002900000F08CFC3DE00121C902884210D12049C8
:1002A000642264316846FFF757FFE869C04340069F
:1002B000FBD464226946194800F04EFF022014E086
:1002C000202815D0102811D1642216496846FFF75E
:1002D00043FFE869C0434006FBD4642269460F48E7
:1002E00000F03AFF3C2060600420A0601AB070BDAE
:1002F0000C49642264396846FFF72EFFE869C04361
:100300004006FBD464226946044800F025FF002023
:100310006060A660EAE700000000002054000020B2
:100320001C1C0008481D000810B504494A69024217
:1003300002D04861FFF792FF10BD000000040140A9
:10034000F8B5002389E001249C402A46A4462240B7
:100350007ED04C68022C01D0122C0CD1DC08A400F9
:1003600027183C6A5D07ED0E0F26AE40B4430E69B8
:10037000AE4026433E6205685E000324B4400F7918
:10038000A543BF07BF0FB7402F4307604D68012D3E
:1003900005D0022D03D0112D01D0122D0ED185686C
:1003A000CF68A543B7402F43876047686546AF4392
:1003B0000D79ED06ED0F9D403D434560C568A543B1
:1003C0008C68B4402C43C4604C68E40044D5264C8F
:1003D000A56901263543A561A4699D0834400094B0
:1003E000224CAD002F19BC689D072E0F0F25B5407C
:1003F000AC430925ED06A84201D100250AE01C4DB9
:10040000A84201D1012505E01A4DA84201D10225DB
:1004100000E00525B5402543BD60174C25684E68B2
:100420009543F60300D51543256065684E689543EE
:10043000B60300D515436560A5684E689543F6027E
:1004400000D51543A560E5684E689543B60200E007
:1004500002E000D51543E5605B1C0A681546DA40EA
:1004600000D070E7F8BD000000100240000001401D
:10047000000400480008004800040140002A01D0A0
:1004800081617047816270470148006870470000D1
:100490000C00002002480168491C01607047000000
:1004A0000C00002010B506480168102211430160BD
:1004B000002000F007F800F017F8002010BD000041
:1004C0000020024010B5044600F0DAF87D21C90092
:1004D000FFF72CFE00F01AFB00222146501E00F010
:1004E00021F8002010BD000008B5084881690122EC
:1004F00011438161816911400091C26901040A437D
:10050000C261C0690840009008BD000000100240B0
:10051000C106C90E012088400149086070470000EB
:1005200000E100E010B500F0ADFE10BDF8B50546E5
:100530004E480E460068C007C00FB0420AD24B4872
:10054000016849084900314301600068C007C00FD5
:10055000B04270D12878464C800705D56068F021FC
:100560008843A968084360602878C00753D068684A
:10057000012817D0022818D0032819D0216889072C
:10058000002958DA61688908890001436160FFF732
:100590007BFF69680746012913D002291DD0032972
:1005A00027D034E021688903EAE721688901E7E779
:1005B000616BC903E4E7FFF767FFC11B2D48814268
:1005C00023D860680007800F0128F4D123E0FFF7EB
:1005D0005BFFC11B2748814217D860680007800F66
:1005E0000228F4D117E0FFF74FFFC11B21488142D9
:1005F0000BD860680007800F0328F4D10BE0FFF7E9
:1006000043FFC11B1B48814201D90320F8BD60682C
:100610000007800FF3D115480168C907C90FB1421F
:100620000BD9016849084900314301600068C007DF
:10063000C00FB04201D00120F8BD2878400706D590
:100640006068072109028843E9680843606000F098
:100650002DF86168084A0906090F515CC84007492E
:1006600008600020FFF72EFF0020F8BD00200240A8
:100670000010024088130000101E00081000002027
:100680000148006870470000100000200448054938
:1006900000684968044A4905490F515CC8407047E1
:1006A0001000002000100240201E000830B516A3E4
:1006B0000FCB89B06C460FC417A30FCB0FC41A49D8
:1006C0004A680C20144604401848042C05D0184BE6
:1006D000082C04D00C2C00D1184609B030BD94026F
:1006E000240F6D462C5DC96A04AD0907090FD203BA
:1006F000695C920F022A02D0032A00D11846FFF744
:1007000015FD6043E9E70000020304050607080938
:100710000A0B0C0D0E0F101001020304050607084A
:10072000090A0B0C0D0E0F100010024000127A0087
:10073000006CDC02FEB504460078F04EF04DC007B8
:1007400048D068680007800F01281FD0686800073C
:10075000800F022804D16868C003800F022815D0DA
:100760006168012919D001208004002901D00529E0
:1007700017D02968B14329602968814329606068DE
:1007800000281BD0FFF780FE074613E0286880038F
:1007900020D56068002876D01CE0286830432860A7
:1007A000EDE7296801432960F7E7FFF76DFEC01BFD
:1007B000642869D828688003F7D50BE0FFF764FE4A
:1007C000074604E0FFF760FEC01B6428F1D82868E4
:1007D0008003F7D4207880073ED568680007800F33
:1007E00014D068680007800F022804D16868C0032D
:1007F000800F01280AD0E068002828681DD0012158
:1008000008432860FFF740FE07460BE02868800792
:100810000BD5E068012836D107E0FFF735FEC01B95
:100820000228C6D828688007F7D52868F8218843A9
:100830002169C900084328600EE040084000286094
:10084000FFF722FE074604E0FFF71EFEC01B02284A
:10085000AFD828688007F7D42078000724D5E0694E
:100860000028686A11D0012108436862FFF70CFE76
:10087000074604E0FFF708FEC01B022899D8686A03
:100880008007F7D510E036E1D1E04008400068620B
:10089000FFF7FAFD074604E0FFF7F6FDC01B02284C
:1008A00087D8686A8007F7D4207804274007002893
:1008B00061DA00200190E869C00008D4E969B8064F
:1008C0000143E961E96901400120009101908D48EF
:1008D0000168C90511D40168821511430160FFF751
:1008E000D3FD009005E0FFF7CFFD0099401A642882
:1008F00097D884480068C005F5D5A06801280AD0BB
:10090000002801D0052811D0286A4008400028623C
:10091000286AB84302E0286A012108432862A068D7
:10092000002812D0FFF7B0FD00900AE0286A384393
:100930002862F0E7FFF7A8FD0099411A724881424A
:1009400075D8286A8007F5D50DE0FFF79DFD00906A
:1009500006E0FFF799FD0099411A6B48814266D87D
:10096000286A8007F5D40198002804D0E96901209D
:1009700000078143E9612078C00635D56069012808
:100980000CD0401D686B24D038436863686B400806
:1009900040006863FFF778FD074622E0686B384344
:1009A0006863686B012108436863FFF76DFD0746C4
:1009B00004E0FFF769FDC01B022838D8686B800788
:1009C000F7D5686BF8218843A169C90008436863BB
:1009D0000AE0B8436863F4E7FFF756FDC01B02283E
:1009E00025D8686B8007F7D42078800637D56868EB
:1009F0000007800F032813D068680007800F0228C3
:100A000004D16868C003800F032809D0206A002839
:100A1000686B16D030436863FFF736FD06460CE07E
:100A2000686BC0031BD5206A012864D117E05BE026
:100A3000FFF72AFD801B022856D8686BC003F7D544
:100A40000DE0B0436863FFF71FFD064604E0FFF7C3
:100A50001BFD801B022847D8686BC003F7D4606A6F
:100A6000002846D069680907890F022943D001266A
:100A700036060228286805D0B0432860FFF704FD39
:100A8000044633E0B0432860FFF7FEFC074604E06D
:100A9000FFF7FAFCC01B022826D828688001F7D48B
:100AA000E86A216B000900010843E862A16AE06A74
:100AB000084369687B22D203914308436860286831
:100AC00030432860FFF7E0FC044604E0FFF7DCFC5D
:100AD000001B022808D828688001F7D509E0FFF735
:100AE000D3FC001B022801D90320FEBD2868800129
:100AF000F5D40020FEBD0120FEBD00000000010075
:100B0000001002400070004088130000094910B531
:100B1000401E884201D9012010BD074C60610321AD
:100B2000081F00F0AFFB0020A0610720206100201B
:100B300010BD0000FFFFFF0000E000E070477047BD
:100B400070B5040005D025462035687F002802D006
:100B500006E0012070BD00202877204600F00AF84A
:100B600002206877211D206800F00AFC01206877C8
:100B7000002070BD08B500680A49884210D10A48B3
:100B80008269012189040A43826180690022084048
:100B9000009011461620FFF7C5FC1620FFF7B8FCA1
:100BA00008BD000000480140001002400268D36800
:100BB00001210B43D360006802680A4302600020F1
:100BC000704700000168CA6852085200CA60006895
:100BD000016A064A114207D1016A9210114203D1FB
:100BE00001684908490001600020704711110000A8
:100BF000704770B50446006801690025C94389073C
:100C0000002915DBC168C943890711D4E91E0161B8
:100C100001202077206880698007204602D0FFF7F6
:100C2000E7FF04E000F096F8204600F094F82577FE
:100C300020680169C943490717D4C168C9434907F6
:100C400013D40421C9430161022020772068806900
:100C50008005800F204602D0FFF7CAFF04E000F0B5
:100C600079F8204600F077F8257720680169C943B4
:100C7000090716D4C168C943090712D40821C9431A
:100C80000161042020772068C0698007204602D0D7
:100C9000FFF7AEFF04E000F05DF8204600F05BF8DF
:100CA000257720680169C943C90617D4C168C943BB
:100CB000C90613D41021C943016108202077206898
:100CC000C0698005800F204602D0FFF791FF04E045
:100CD00000F040F8204600F03EF8257720680169D2
:100CE000C943C90708D1C168C943C90704D1891ECE
:100CF0000161204600F030F820680169C943090607
:100D000009D4C168C943090605D48021C9430161DA
:100D10002046FFF713FF20680169C943490609D43B
:100D2000C168C943490605D44021C9430161204631
:100D300000F07CF820680169C943890609D4C168BC
:100D4000C943890605D42021C94301612046FFF724
:100D5000F6FE70BD7047704770B500682B49884239
:100D600053D12B4C2B4D2046A1684068012902D05D
:100D7000022915D02BE03C21FFF7D8F9C2B222702E
:100D8000244861700B4624A1703000F03DFD60687E
:100D9000401C60602868C169C9434906FBD410E063
:100DA0003C21FFF7C3F9C2B222701A4861700B46AA
:100DB00019A1703000F028FD2868C169C9434906AF
:100DC000FBD4144964227031124800F0C5F9A068C0
:100DD00004281AD13C216068FFF7A8F9C2B222703A
:100DE0000C4861700B460CA1703000F00DFD60687E
:100DF000401E60602868C169C9434906FBD40549A3
:100E000064227031034800F0A7F970BD004801402A
:100E10000000002054000020436C6F636B202D3EC7
:100E200020253032643A253032640A00704770471A
:100E300070470000F8B503680446D86919680507CB
:100E40002D0F07D1820605D58A0603D5204600F06E
:100E500099FBF8BD9A68002D64D0D507ED0FFF26E9
:100E600021360E402E435DD0C60706D0CE0504D5F0
:100E700001261E62E36E3343E366870702230426DE
:100E8000002F06DAD70704D027683B62E76E3743A6
:100E9000E766470706D5D20704D022681662E26EDD
:100EA0001A43E266020709D520220A402A4305D0E8
:100EB000236808221A62E36E1343E366E26E002A97
:100EC000C7D0800604D5880602D5204600F05AFB1C
:100ED000E06E000703D42068806840061CD52046D9
:100EE00000F034FB20688168490611D581684022F2
:100EF00091438160606E00280AD01A494163606E98
:100F0000FFF788F90028A4D0606E416B8847F8BDD0
:100F10002046FFF78DFFF8BD2046FFF789FF002030
:100F2000E066F8BDC5020DD552020BD501200005C3
:100F30001862202120466030417281722046FFF7FE
:100F400076FFF8BD020605D50A0603D5204600F057
:100F5000EFFBF8BD4006FCD54806FAD5204600F068
:100F600004FBF8BD3915000870B5040005D025460E
:100F70006035687A002802D006E0012070BD0020AC
:100F80002872204600F026F8242068722068016844
:100F9000490849000160204600F032FB0128EDD0ED
:100FA000606A002802D0204600F02CFA20684168D0
:100FB0000922D20291434160206881682A2291432C
:100FC000816020680168012211430160204600F021
:100FD0007FFA70BD10B586B0044614216846FFF74D
:100FE000D4F816492068884225D11548C2690121E4
:100FF00049040A43C261C2690A40059242690A4330
:1010000042614069084005900E480090022001901E
:1010100000200290032003900120049009206946DB
:10102000C006FFF78DF9002211461C20FFF77AFA5F
:101030001C20FFF76DFA06B010BD00000044004010
:101040000010024004800000F0B5034660339C7A33
:10105000202C44D100290BD0002A09D00125846816
:101060002D03AC4206D10669002E03D1CE0701D074
:101070000120F0BD1E7A012E31D001261E7241657D
:10108000014640310A834A83FF27AC4204D10269FA
:10109000002A12D1134A0EE07F22002C08D001252D
:1010A0002D07AC420AD10469002C04D03F2202E093
:1010B0000469002C01D08A8300E08F830021C1667F
:1010C00022229A72197201688A6832438A60006823
:1010D0000168FF222132114301600020F0BD02208F
:1010E000F0BD0000FF01000030B5006814499BB05E
:1010F00088420ED113A11448FFF752F8C5B2124925
:1011000019A8FFF75BF8114C002D04D02168104896
:1011100008621BB030BD64220E496846FFF71CF818
:101120002068C169C9434906FBD46422694607485F
:1011300000F012F805484038FFF744FDE9E70000E9
:101140000044004071000000020000205400002014
:1011500025050000AC1D000830B5034660335C7AFD
:10116000202C23D100290BD0002A09D00125846826
:101170002D03AC4206D10469002C03D1CC0701D069
:10118000012030BD1C7A012C10D0C16401464031D1
:101190000A824A820021C16621225A7219720068AD
:1011A0000168802211430160002030BD022030BD63
:1011B0007047FEE770B586B014216846FEF7E5FF7C
:1011C00020484269012189050A43426142690A4077
:1011D0000592426949110A43426142690A400592F7
:1011E000426949000A4342614069174E0840059030
:1011F000002208213046FFF741F9F014134C012575
:101200006A4631C26946C004FFF79AF800210820F7
:10121000029103910090019569463046FFF790F8DE
:1012200030206A4631C269463046FFF789F800220D
:1012300011460720FFF776F90720FFF769F906B096
:1012400070BD000000100240000400480000311092
:1012500010B50A48084901604B214902416000214C
:101260008160C16001618161C1610C2201624261E2
:101270004162FFF779FE10BD004400405400002099
:10128000704700008307FF22DB0E9A408907090E92
:10129000994000280BDA0007000F08388308084837
:1012A0009B001818C36993430B43C36170478308BD
:1012B00004489B001B181868904308431860704747
:1012C00000ED00E000E400E07047704710B5FFF764
:1012D000E1F810BD10B592B034216846FEF755FF15
:1012E00000240F94202000900D9401200E9408906B
:1012F000109409946846FFF71DFA07200D9003200B
:101300000E900F94012110940DA8FFF70FF912B061
:1013100010BD0000134801680122114301604168BB
:10132000114A114041600168104A11400160016892
:10133000012292049143016041683F2212049143CB
:101340004160C16A09090901C162016BFF22D432FF
:1013500091430163416B4908490041630021816069
:1013600070470000001002400CB8FF08FFFFF6FEB7
:1013700010B50248FFF73DFC10BD0000140000202E
:10138000F0B502681A4B0124A4071A4D984203D005
:10139000A04201D0A84203D17026B2434E68324326
:1013A000154E164F98420AD0A04208D0A84206D047
:1013B000134CA04203D0B04201D0B84204D1032460
:1013C0002402A243CC6822438024A2434C692243D6
:1013D00002608A68C2620A688262984203D0B042A0
:1013E00001D0B84201D10969016301214161F0BD19
:1013F000002C01400004004000440140004801402E
:101400000020004010B5818CC90707D001684A68E8
:1014100001235B049A43836A1A434A60818C8907DB
:1014200007D501684A6801231B049A43C36A1A431B
:101430004A60818C490707D501684A6801239B04EB
:101440009A43036B1A434A60818C090707D50168E8
:101450004A680123DB039A43436B1A434A60818C39
:10146000C90607D50268916801231B039943836B62
:1014700019439160818C890607D501688A68012328
:101480005B039A43C36B1A438A60818C490612D569
:1014900003685A6801210905046C8A4322435A6093
:1014A000026C8A4207D10268516803235B059943A5
:1014B000436C19435160818C090607D501684A685D
:1014C0000123DB04806C9A4302434A6010BD000094
:1014D000F8B500260446C666FEF7D6FF0546144951
:1014E000206888421DD10068124F000709D50121EC
:1014F0002B46002249052046009700F04CF90028B1
:101500000DD12068006840070BD501212B46002231
:1015100089052046009700F03EF9002801D00320FD
:10152000F8BD202060346072A07226720020F8BDE1
:1015300000380140FFFFFF0110B5406A002201465C
:1015400040314A834A82FFF773FC10BD01680A6884
:10155000FF2321339A430A6001688A6852085200C7
:101560008A60202160308172704710B501680A6876
:1015700040239A430A60202269210A54FFF718FE8B
:10158000002010BD70B50246403203466033948B94
:101590009D7A0168222D05D0886908221043886150
:1015A000022070BD898C012685683603B54202D1C0
:1015B0000569002D0BD02140446D651C45652170E7
:1015C000518B491E0904090C518307D015E0456D64
:1015D00021402980416D891C4165F1E701680A6855
:1015E000FF242134A2430A6001688A68520852002D
:1015F0008A6020219972FFF777FD002070BD0000FE
:10160000F8B504462369A268E5691A4363691020A6
:101610002B43002125681A432B680E463E4F3B4062
:1016200013432B6023685A6803252D03AA43E568FA
:101630002A435A60236AA26925681A43AB680B27BC
:101640003F02BB431343AB60344A2568954210D137
:10165000334A126B9207920F0ED0012A05D0022A4C
:1016600005D0032A09D1022007E0042005E0082064
:1016700003E02C4A954200D100200122E369D20305
:10168000934224D100280CD002280DD0042813D076
:10169000082817D001260A0912010807400F104335
:1016A0002FE0FEF7F3FF09E061681F4A4808801841
:1016B000FEF73CFD81B2EEE7FEF7F8FF61684000FF
:1016C0004A08F4E76168012248081204EFE700289D
:1016D00008D0022809D004280BD0082814D00126ED
:1016E0003046F8BDFEF7D2FF05E061680F4A4808B2
:1016F0000CE0FEF7DBFF61684A088018FEF716FD74
:1017000080B22168C860EBE7616848088018FEF77E
:101710000DFD80B2E860E3E7F369FFEF00380140B8
:1017200000100240004400400024F40000127A003F
:101730006921095C212901D002207047024640320C
:10174000518A002912D0012381681B03994202D1DA
:101750000169002915D0C16C4B1CC364006809786D
:101760000185508A401E50820020704701680A6837
:1017700080239A430A600068016840221143016097
:10178000F2E7C16C03680988C905C90D1985C16CE8
:10179000891CC164E5E7FFB581B017460E460446D3
:1017A0000A9D1DE0681C1BD0002D05D0FEF76CFEC5
:1017B0000499401AA84213D920680168FF22A13277
:1017C00091430160206881684908490081602020B8
:1017D00060346072A07200202072032005B0F0BD5A
:1017E0002068C1693046884304D00020B842D9D06F
:1017F0000020F3E70120F9E710B50248FFF71AFBD4
:1018000010BD0000540000200FB410B504A9074B10
:1018100002AA039800F01CF8044602A9002000F078
:10182000BFF9204610BC08BC04B01847A11B000833
:1018300002E008C8121F08C1002AFAD17047704799
:10184000002001E001C1121F002AFBD170470000F7
:10185000FFB58FB00546002606E025280AD0129A6B
:10186000119990476D1C761C28780028F5D13046D8
:1018700013B0F0BD002402940121B54A009400E0A9
:1018800004436D1C2B780846203B98401042F7D14A
:1018900028782A280ED002222878014630390929D2
:1018A00016D802990A2359433039401814436D1C45
:1018B0000290F1E7109802C802911090002904DA12
:1018C00001204003044348420290022004436D1C5F
:1018D00028782E2817D10420044368786D1C2A2804
:1018E0000CD110986D1C02C8009110900BE000996B
:1018F0000A225143303940186D1C00902878014667
:1019000030390929F3D928786C2810D006DC4C2806
:101910001AD068280ED06A2817D104E0742813D092
:101920007A2812D110E00120400504430CE0012187
:10193000090501E0032109050C436978814203D1BF
:101940000120000524186D1C6D1C2878692874D0AE
:1019500006DC00288BD0632827D0642806D16CE0F1
:101960006E2808D073282CD0752878D0129A119937
:101970009047761C5FE06002400F022809D00328E0
:101980000DD00428109801680DD00E60001D109035
:1019900051E01098F21701680E604A60F6E710985F
:1019A00001680E80F2E70E70F0E710986A46017841
:1019B0001173001D10900020507303A801900120A6
:1019C00005E0109802C8019110900020C043610703
:1019D0000CD5002700E07F1C00998F420FDA874268
:1019E000F9DB0199C95D0029F5D108E0002700E085
:1019F0007F1C8742FCDB0199C95D0029F8D1029860
:101A00002146C01B0290129B119A00F0B3F8801976
:101A1000C61907E0019801990078491C0191129AB2
:101A2000119990477F1EF5D22146129B119A029878
:101A300000F090F886196D1C16E70A2001901099A5
:101A400001C910916102490F032900D100B2042994
:101A500000D140B2002803DA40422D2103E00DE01E
:101A6000210504D52B216A461173012103E0E1070A
:101A700011D02021F7E70CAF0C9114E00A2001905F
:101A8000109901C910916102490F032900D180B258
:101A9000042900D1C0B20021EDE70199FEF746FB11
:101AA00030317F1E39700028F7D104A8C01B2030C8
:101AB0000190600704D5012000048443009801E0F0
:101AC000012000900199884201DD401A00E00020C9
:101AD000411800900C9809180298401A0290E003EF
:101AE00006D42146129B119A029800F043F88619F9
:101AF00000200D9008E003A9085C129A1199904704
:101B00000D98401C761C0D900C998842F3DBE00385
:101B10000CD52146129B119A029800F02BF88619D9
:101B200004E0129A302011999047761C0099481EC3
:101B300000900029F5DC05E03878129A7F1C119995
:101B40009047761C0199481E01900029F4DC6BE750
:101B500009280100F8B5044600251E4617468804EA
:101B600004D405E039462020B0476D1C641EF9D529
:101B70002846F8BDFFB50446002581B01E46C803BF
:101B800001D5302700E02027880404D505E0384639
:101B90000399B0476D1C641EF9D5284605B0F0BD09
:101BA0000A68531C0B60107070470000FEF77AFC47
:101BB000FFF790FBFFF7FEFAFFF74AFB13481249C5
:101BC000016013494160002181600161114A416156
:101BD000C2608161FEF7B4FF0C48FEF7E7FFFF200B
:101BE0000130FEF7A1FB0120C002FEF79DFB202083
:101BF000FEF79AFB1020FEF797FB044801220649E6
:101C00004030FFF721FAFEE70048014014000020B1
:101C10007FBB0000E703000002000020436C6F63FD
:101C20006B20436F6E74696E75650A0000000000DA
:101C300000000000000000000000000000000000A4
:101C40000000000000000000000000000000000094
:101C50000000000000000000000000000000000084
:101C60000000000000000000000000000000000074
:101C70000000000000000000000000000000000064
:101C8000436C6F636B2053746F700A000000000098
:101C90000000000000000000000000000000000044
:101CA0000000000000000000000000000000000034
:101CB0000000000000000000000000000000000024
:101CC0000000000000000000000000000000000014
:101CD0000000000000000000000000000000000004
:101CE00000000000436C6F636B2052657365740ADB
:101CF00000000000000000000000000000000000E4
:101D000000000000000000000000000000000000D3
:101D100000000000000000000000000000000000C3
:101D200000000000000000000000000000000000B3
:101D300000000000000000000000000000000000A3
:101D40000000000000000000436C6F636B20436FD5
:101D5000756E746572636C6F636B576973650A00A7
:101D60000000000000000000000000000000000073
:101D70000000000000000000000000000000000063
:101D80000000000000000000000000000000000053
:101D90000000000000000000000000000000000043
:101DA00000000000000000000000000053746F708D
:101DB000204669726D776172650A000000000000BC
:101DC0000000000000000000000000000000000013
:101DD0000000000000000000000000000000000003
:101DE00000000000000000000000000000000000F3
:101DF00000000000000000000000000000000000E3
:101E000000000000000000000000000000000000D2
:101E1000000000000000000001020304060708099A
:101E20000000000001020304481E0008000000201A
:101E300014000000301800085C1E00081400002088
:101E40001405000040180008000000000000000019
:0C1E5000010000000000000000127A00F9
:04000005080000C12E
:00000001FF
